{
  "_format": "hh-sol-artifact-1",
  "contractName": "StrideShoes",
  "sourceName": "contracts/StrideShoes.sol",
  "abi": [
    {
      "inputs": [],
      "stateMutability": "nonpayable",
      "type": "constructor"
    },
    {
      "inputs": [],
      "name": "ERC721EnumerableForbiddenBatchMint",
      "type": "error"
    },
    {
      "inputs": [
        {
          "internalType": "address",
          "name": "sender",
          "type": "address"
        },
        {
          "internalType": "uint256",
          "name": "tokenId",
          "type": "uint256"
        },
        {
          "internalType": "address",
          "name": "owner",
          "type": "address"
        }
      ],
      "name": "ERC721IncorrectOwner",
      "type": "error"
    },
    {
      "inputs": [
        {
          "internalType": "address",
          "name": "operator",
          "type": "address"
        },
        {
          "internalType": "uint256",
          "name": "tokenId",
          "type": "uint256"
        }
      ],
      "name": "ERC721InsufficientApproval",
      "type": "error"
    },
    {
      "inputs": [
        {
          "internalType": "address",
          "name": "approver",
          "type": "address"
        }
      ],
      "name": "ERC721InvalidApprover",
      "type": "error"
    },
    {
      "inputs": [
        {
          "internalType": "address",
          "name": "operator",
          "type": "address"
        }
      ],
      "name": "ERC721InvalidOperator",
      "type": "error"
    },
    {
      "inputs": [
        {
          "internalType": "address",
          "name": "owner",
          "type": "address"
        }
      ],
      "name": "ERC721InvalidOwner",
      "type": "error"
    },
    {
      "inputs": [
        {
          "internalType": "address",
          "name": "receiver",
          "type": "address"
        }
      ],
      "name": "ERC721InvalidReceiver",
      "type": "error"
    },
    {
      "inputs": [
        {
          "internalType": "address",
          "name": "sender",
          "type": "address"
        }
      ],
      "name": "ERC721InvalidSender",
      "type": "error"
    },
    {
      "inputs": [
        {
          "internalType": "uint256",
          "name": "tokenId",
          "type": "uint256"
        }
      ],
      "name": "ERC721NonexistentToken",
      "type": "error"
    },
    {
      "inputs": [
        {
          "internalType": "address",
          "name": "owner",
          "type": "address"
        },
        {
          "internalType": "uint256",
          "name": "index",
          "type": "uint256"
        }
      ],
      "name": "ERC721OutOfBoundsIndex",
      "type": "error"
    },
    {
      "inputs": [
        {
          "internalType": "address",
          "name": "owner",
          "type": "address"
        }
      ],
      "name": "OwnableInvalidOwner",
      "type": "error"
    },
    {
      "inputs": [
        {
          "internalType": "address",
          "name": "account",
          "type": "address"
        }
      ],
      "name": "OwnableUnauthorizedAccount",
      "type": "error"
    },
    {
      "anonymous": false,
      "inputs": [
        {
          "indexed": true,
          "internalType": "address",
          "name": "owner",
          "type": "address"
        },
        {
          "indexed": true,
          "internalType": "address",
          "name": "approved",
          "type": "address"
        },
        {
          "indexed": true,
          "internalType": "uint256",
          "name": "tokenId",
          "type": "uint256"
        }
      ],
      "name": "Approval",
      "type": "event"
    },
    {
      "anonymous": false,
      "inputs": [
        {
          "indexed": true,
          "internalType": "address",
          "name": "owner",
          "type": "address"
        },
        {
          "indexed": true,
          "internalType": "address",
          "name": "operator",
          "type": "address"
        },
        {
          "indexed": false,
          "internalType": "bool",
          "name": "approved",
          "type": "bool"
        }
      ],
      "name": "ApprovalForAll",
      "type": "event"
    },
    {
      "anonymous": false,
      "inputs": [
        {
          "indexed": true,
          "internalType": "address",
          "name": "previousOwner",
          "type": "address"
        },
        {
          "indexed": true,
          "internalType": "address",
          "name": "newOwner",
          "type": "address"
        }
      ],
      "name": "OwnershipTransferred",
      "type": "event"
    },
    {
      "anonymous": false,
      "inputs": [
        {
          "indexed": true,
          "internalType": "address",
          "name": "owner",
          "type": "address"
        },
        {
          "indexed": false,
          "internalType": "uint256",
          "name": "tokenId",
          "type": "uint256"
        },
        {
          "indexed": false,
          "internalType": "enum StrideShoes.Rarity",
          "name": "rarity",
          "type": "uint8"
        }
      ],
      "name": "ShoeMinted",
      "type": "event"
    },
    {
      "anonymous": false,
      "inputs": [
        {
          "indexed": true,
          "internalType": "uint256",
          "name": "tokenId",
          "type": "uint256"
        },
        {
          "indexed": false,
          "internalType": "uint8",
          "name": "newLevel",
          "type": "uint8"
        },
        {
          "indexed": false,
          "internalType": "uint256",
          "name": "newEfficiency",
          "type": "uint256"
        }
      ],
      "name": "ShoeUpgraded",
      "type": "event"
    },
    {
      "anonymous": false,
      "inputs": [
        {
          "indexed": true,
          "internalType": "address",
          "name": "from",
          "type": "address"
        },
        {
          "indexed": true,
          "internalType": "address",
          "name": "to",
          "type": "address"
        },
        {
          "indexed": true,
          "internalType": "uint256",
          "name": "tokenId",
          "type": "uint256"
        }
      ],
      "name": "Transfer",
      "type": "event"
    },
    {
      "inputs": [
        {
          "internalType": "address",
          "name": "to",
          "type": "address"
        },
        {
          "internalType": "uint256",
          "name": "tokenId",
          "type": "uint256"
        }
      ],
      "name": "approve",
      "outputs": [],
      "stateMutability": "nonpayable",
      "type": "function"
    },
    {
      "inputs": [
        {
          "internalType": "address",
          "name": "owner",
          "type": "address"
        }
      ],
      "name": "balanceOf",
      "outputs": [
        {
          "internalType": "uint256",
          "name": "",
          "type": "uint256"
        }
      ],
      "stateMutability": "view",
      "type": "function"
    },
    {
      "inputs": [
        {
          "internalType": "uint256",
          "name": "tokenId",
          "type": "uint256"
        }
      ],
      "name": "getApproved",
      "outputs": [
        {
          "internalType": "address",
          "name": "",
          "type": "address"
        }
      ],
      "stateMutability": "view",
      "type": "function"
    },
    {
      "inputs": [
        {
          "internalType": "uint256",
          "name": "tokenId",
          "type": "uint256"
        }
      ],
      "name": "getShoeDetails",
      "outputs": [
        {
          "internalType": "enum StrideShoes.Rarity",
          "name": "rarity",
          "type": "uint8"
        },
        {
          "internalType": "uint8",
          "name": "level",
          "type": "uint8"
        },
        {
          "internalType": "uint256",
          "name": "efficiency",
          "type": "uint256"
        },
        {
          "internalType": "uint256",
          "name": "multiplier",
          "type": "uint256"
        }
      ],
      "stateMutability": "view",
      "type": "function"
    },
    {
      "inputs": [
        {
          "internalType": "address",
          "name": "owner",
          "type": "address"
        },
        {
          "internalType": "address",
          "name": "operator",
          "type": "address"
        }
      ],
      "name": "isApprovedForAll",
      "outputs": [
        {
          "internalType": "bool",
          "name": "",
          "type": "bool"
        }
      ],
      "stateMutability": "view",
      "type": "function"
    },
    {
      "inputs": [
        {
          "internalType": "address",
          "name": "to",
          "type": "address"
        },
        {
          "internalType": "enum StrideShoes.Rarity",
          "name": "rarity",
          "type": "uint8"
        }
      ],
      "name": "mint",
      "outputs": [
        {
          "internalType": "uint256",
          "name": "",
          "type": "uint256"
        }
      ],
      "stateMutability": "nonpayable",
      "type": "function"
    },
    {
      "inputs": [],
      "name": "name",
      "outputs": [
        {
          "internalType": "string",
          "name": "",
          "type": "string"
        }
      ],
      "stateMutability": "view",
      "type": "function"
    },
    {
      "inputs": [],
      "name": "owner",
      "outputs": [
        {
          "internalType": "address",
          "name": "",
          "type": "address"
        }
      ],
      "stateMutability": "view",
      "type": "function"
    },
    {
      "inputs": [
        {
          "internalType": "uint256",
          "name": "tokenId",
          "type": "uint256"
        }
      ],
      "name": "ownerOf",
      "outputs": [
        {
          "internalType": "address",
          "name": "",
          "type": "address"
        }
      ],
      "stateMutability": "view",
      "type": "function"
    },
    {
      "inputs": [
        {
          "internalType": "enum StrideShoes.Rarity",
          "name": "",
          "type": "uint8"
        }
      ],
      "name": "rarityMultipliers",
      "outputs": [
        {
          "internalType": "uint256",
          "name": "",
          "type": "uint256"
        }
      ],
      "stateMutability": "view",
      "type": "function"
    },
    {
      "inputs": [],
      "name": "renounceOwnership",
      "outputs": [],
      "stateMutability": "nonpayable",
      "type": "function"
    },
    {
      "inputs": [
        {
          "internalType": "address",
          "name": "from",
          "type": "address"
        },
        {
          "internalType": "address",
          "name": "to",
          "type": "address"
        },
        {
          "internalType": "uint256",
          "name": "tokenId",
          "type": "uint256"
        }
      ],
      "name": "safeTransferFrom",
      "outputs": [],
      "stateMutability": "nonpayable",
      "type": "function"
    },
    {
      "inputs": [
        {
          "internalType": "address",
          "name": "from",
          "type": "address"
        },
        {
          "internalType": "address",
          "name": "to",
          "type": "address"
        },
        {
          "internalType": "uint256",
          "name": "tokenId",
          "type": "uint256"
        },
        {
          "internalType": "bytes",
          "name": "data",
          "type": "bytes"
        }
      ],
      "name": "safeTransferFrom",
      "outputs": [],
      "stateMutability": "nonpayable",
      "type": "function"
    },
    {
      "inputs": [
        {
          "internalType": "address",
          "name": "operator",
          "type": "address"
        },
        {
          "internalType": "bool",
          "name": "approved",
          "type": "bool"
        }
      ],
      "name": "setApprovalForAll",
      "outputs": [],
      "stateMutability": "nonpayable",
      "type": "function"
    },
    {
      "inputs": [
        {
          "internalType": "uint256",
          "name": "",
          "type": "uint256"
        }
      ],
      "name": "shoes",
      "outputs": [
        {
          "internalType": "enum StrideShoes.Rarity",
          "name": "rarity",
          "type": "uint8"
        },
        {
          "internalType": "uint8",
          "name": "level",
          "type": "uint8"
        },
        {
          "internalType": "uint256",
          "name": "efficiency",
          "type": "uint256"
        },
        {
          "internalType": "uint256",
          "name": "lastActivityTimestamp",
          "type": "uint256"
        }
      ],
      "stateMutability": "view",
      "type": "function"
    },
    {
      "inputs": [
        {
          "internalType": "bytes4",
          "name": "interfaceId",
          "type": "bytes4"
        }
      ],
      "name": "supportsInterface",
      "outputs": [
        {
          "internalType": "bool",
          "name": "",
          "type": "bool"
        }
      ],
      "stateMutability": "view",
      "type": "function"
    },
    {
      "inputs": [],
      "name": "symbol",
      "outputs": [
        {
          "internalType": "string",
          "name": "",
          "type": "string"
        }
      ],
      "stateMutability": "view",
      "type": "function"
    },
    {
      "inputs": [
        {
          "internalType": "uint256",
          "name": "index",
          "type": "uint256"
        }
      ],
      "name": "tokenByIndex",
      "outputs": [
        {
          "internalType": "uint256",
          "name": "",
          "type": "uint256"
        }
      ],
      "stateMutability": "view",
      "type": "function"
    },
    {
      "inputs": [
        {
          "internalType": "address",
          "name": "owner",
          "type": "address"
        },
        {
          "internalType": "uint256",
          "name": "index",
          "type": "uint256"
        }
      ],
      "name": "tokenOfOwnerByIndex",
      "outputs": [
        {
          "internalType": "uint256",
          "name": "",
          "type": "uint256"
        }
      ],
      "stateMutability": "view",
      "type": "function"
    },
    {
      "inputs": [
        {
          "internalType": "uint256",
          "name": "tokenId",
          "type": "uint256"
        }
      ],
      "name": "tokenURI",
      "outputs": [
        {
          "internalType": "string",
          "name": "",
          "type": "string"
        }
      ],
      "stateMutability": "view",
      "type": "function"
    },
    {
      "inputs": [],
      "name": "totalSupply",
      "outputs": [
        {
          "internalType": "uint256",
          "name": "",
          "type": "uint256"
        }
      ],
      "stateMutability": "view",
      "type": "function"
    },
    {
      "inputs": [
        {
          "internalType": "address",
          "name": "from",
          "type": "address"
        },
        {
          "internalType": "address",
          "name": "to",
          "type": "address"
        },
        {
          "internalType": "uint256",
          "name": "tokenId",
          "type": "uint256"
        }
      ],
      "name": "transferFrom",
      "outputs": [],
      "stateMutability": "nonpayable",
      "type": "function"
    },
    {
      "inputs": [
        {
          "internalType": "address",
          "name": "newOwner",
          "type": "address"
        }
      ],
      "name": "transferOwnership",
      "outputs": [],
      "stateMutability": "nonpayable",
      "type": "function"
    },
    {
      "inputs": [
        {
          "internalType": "uint256",
          "name": "tokenId",
          "type": "uint256"
        },
        {
          "internalType": "uint256",
          "name": "efficiencyIncrease",
          "type": "uint256"
        }
      ],
      "name": "upgrade",
      "outputs": [],
      "stateMutability": "nonpayable",
      "type": "function"
    }
  ],
  "bytecode": "0x60806040523480156200001157600080fd5b50336040518060400160405280600b81526020016a53747269646553686f657360a81b8152506040518060400160405280600481526020016353484f4560e01b815250816000908162000065919062000278565b50600162000074828262000278565b5050506001600160a01b038116620000a657604051631e4fbdf760e01b81526000600482015260240160405180910390fd5b620000b18162000181565b506001600b55600d6020526127107f81955a0a11e65eac625c29e8882660bae4e165a75d72780094acae8ece9a29ee55613a987ffd54ff1ed53f34a900b24c5ba64f85761163b5d82d98a47b9bd80e45466993c5556175307f10a81eed9d63d16face5e76357905348e6253d3394086026bb2bf2145d7cc2495561ea607f26b4a10d0f0b04925c23bd4480ee147c916e5e87a7d68206a533dad160ac81e25560046000526201d4c07fafafe8948a4ed9d478b1e9a5780b119b5edd00ea7d07bc35bef7c814824eb94b5562000344565b600a80546001600160a01b038381166001600160a01b0319831681179093556040519116919082907f8be0079c531659141344cd1fd0a4f28419497f9722a3daafe3b4186f6b6457e090600090a35050565b634e487b7160e01b600052604160045260246000fd5b600181811c90821680620001fe57607f821691505b6020821081036200021f57634e487b7160e01b600052602260045260246000fd5b50919050565b601f8211156200027357600081815260208120601f850160051c810160208610156200024e5750805b601f850160051c820191505b818110156200026f578281556001016200025a565b5050505b505050565b81516001600160401b03811115620002945762000294620001d3565b620002ac81620002a58454620001e9565b8462000225565b602080601f831160018114620002e45760008415620002cb5750858301515b600019600386901b1c1916600185901b1785556200026f565b600085815260208120601f198616915b828110156200031557888601518255948401946001909101908401620002f4565b5085821015620003345787850151600019600388901b60f8161c191681555b5050505050600190811b01905550565b61195a80620003546000396000f3fe608060405234801561001057600080fd5b50600436106101585760003560e01c806366619ef6116100c3578063975332591161007c5780639753325914610303578063a22cb46514610323578063b88d4fde14610336578063c87b56dd14610349578063e985e9c51461035c578063f2fde38b1461036f57600080fd5b806366619ef6146102a9578063691562a0146102bc57806370a08231146102cf578063715018a6146102e25780638da5cb5b146102ea57806395d89b41146102fb57600080fd5b80632f745c59116101155780632f745c59146101ff57806342842e0e14610212578063451450ec146102255780634f6ccce714610238578063607473cf1461024b5780636352211e1461029657600080fd5b806301ffc9a71461015d57806306fdde0314610185578063081812fc1461019a578063095ea7b3146101c557806318160ddd146101da57806323b872dd146101ec575b600080fd5b61017061016b366004611442565b610382565b60405190151581526020015b60405180910390f35b61018d610393565b60405161017c91906114af565b6101ad6101a83660046114c2565b610425565b6040516001600160a01b03909116815260200161017c565b6101d86101d33660046114f7565b61044e565b005b6008545b60405190815260200161017c565b6101d86101fa366004611521565b61045d565b6101de61020d3660046114f7565b6104ed565b6101d8610220366004611521565b610552565b6101d861023336600461155d565b610572565b6101de6102463660046114c2565b61069f565b6102866102593660046114c2565b600c6020526000908152604090208054600182015460029092015460ff8083169361010090930416919084565b60405161017c94939291906115b7565b6101ad6102a43660046114c2565b6106f8565b6102866102b73660046114c2565b610703565b6101de6102ca3660046115f2565b610770565b6101de6102dd366004611625565b61088f565b6101d86108d7565b600a546001600160a01b03166101ad565b61018d6108eb565b6101de610311366004611640565b600d6020526000908152604090205481565b6101d861033136600461165b565b6108fa565b6101d86103443660046116ad565b610905565b61018d6103573660046114c2565b61091d565b61017061036a366004611789565b610992565b6101d861037d366004611625565b6109c0565b600061038d826109fe565b92915050565b6060600080546103a2906117b3565b80601f01602080910402602001604051908101604052809291908181526020018280546103ce906117b3565b801561041b5780601f106103f05761010080835404028352916020019161041b565b820191906000526020600020905b8154815290600101906020018083116103fe57829003601f168201915b5050505050905090565b600061043082610a23565b506000828152600460205260409020546001600160a01b031661038d565b610459828233610a5c565b5050565b6001600160a01b03821661048c57604051633250574960e11b8152600060048201526024015b60405180910390fd5b6000610499838333610a69565b9050836001600160a01b0316816001600160a01b0316146104e7576040516364283d7b60e01b81526001600160a01b0380861660048301526024820184905282166044820152606401610483565b50505050565b60006104f88361088f565b82106105295760405163295f44f760e21b81526001600160a01b038416600482015260248101839052604401610483565b506001600160a01b03919091166000908152600660209081526040808320938352929052205490565b61056d83838360405180602001604052806000815250610905565b505050565b61057a610a7e565b6000828152600260205260409020546001600160a01b03166105d45760405162461bcd60e51b815260206004820152601360248201527214da1bd948191bd95cc81b9bdd08195e1a5cdd606a1b6044820152606401610483565b6000828152600c6020526040902080546001919082906105fd908290610100900460ff16611803565b92506101000a81548160ff021916908360ff16021790555080600c6000848152602001908152602001600020600101600082825461063b919061181c565b90915550506000828152600c60209081526040918290208054600190910154835161010090920460ff1682529181019190915283917f0c10b8db9870a0332c0793629de209ff8986787bbdd6d0adab4776577ba9e742910160405180910390a25050565b60006106aa60085490565b82106106d35760405163295f44f760e21b81526000600482015260248101839052604401610483565b600882815481106106e6576106e661182f565b90600052602060002001549050919050565b600061038d82610a23565b6000818152600c602052604081208054600182015483928392839260ff8083169261010090041690600d858460048111156107405761074061157f565b60048111156107515761075161157f565b8152602001908152602001600020549450945094509450509193509193565b600061077a610a7e565b600b80546000918261078b83611845565b91905055905061079b8482610aab565b60405180608001604052808460048111156107b8576107b861157f565b8152602001600160ff1681526020016064815260200142815250600c600083815260200190815260200160002060008201518160000160006101000a81548160ff0219169083600481111561080f5761080f61157f565b02179055506020820151815460ff9091166101000261ff00199091161781556040808301516001830155606090920151600290910155516001600160a01b038516907fcfa37c1d5171afd29ef586b511a620a35a5acdd15b0828d7078dcbff031c7d5390610880908490879061185e565b60405180910390a29392505050565b60006001600160a01b0382166108bb576040516322718ad960e21b815260006004820152602401610483565b506001600160a01b031660009081526003602052604090205490565b6108df610a7e565b6108e96000610ac5565b565b6060600180546103a2906117b3565b610459338383610b17565b61091084848461045d565b6104e73385858585610bb6565b606061092882610a23565b50600061094060408051602081019091526000815290565b90506000815111610960576040518060200160405280600081525061098b565b8061096a84610ce1565b60405160200161097b929190611872565b6040516020818303038152906040525b9392505050565b6001600160a01b03918216600090815260056020908152604080832093909416825291909152205460ff1690565b6109c8610a7e565b6001600160a01b0381166109f257604051631e4fbdf760e01b815260006004820152602401610483565b6109fb81610ac5565b50565b60006001600160e01b0319821663780e9d6360e01b148061038d575061038d82610d74565b6000818152600260205260408120546001600160a01b03168061038d57604051637e27328960e01b815260048101849052602401610483565b61056d8383836001610dc4565b6000610a76848484610eca565b949350505050565b600a546001600160a01b031633146108e95760405163118cdaa760e01b8152336004820152602401610483565b610459828260405180602001604052806000815250610f97565b600a80546001600160a01b038381166001600160a01b0319831681179093556040519116919082907f8be0079c531659141344cd1fd0a4f28419497f9722a3daafe3b4186f6b6457e090600090a35050565b6001600160a01b038216610b4957604051630b61174360e31b81526001600160a01b0383166004820152602401610483565b6001600160a01b03838116600081815260056020908152604080832094871680845294825291829020805460ff191686151590811790915591519182527f17307eab39ab6107e8899845ad3d59bd9653f200f220920489ca2b5937696c31910160405180910390a3505050565b6001600160a01b0383163b15610cda57604051630a85bd0160e11b81526001600160a01b0384169063150b7a0290610bf89088908890879087906004016118a1565b6020604051808303816000875af1925050508015610c33575060408051601f3d908101601f19168201909252610c30918101906118de565b60015b610c9c573d808015610c61576040519150601f19603f3d011682016040523d82523d6000602084013e610c66565b606091505b508051600003610c9457604051633250574960e11b81526001600160a01b0385166004820152602401610483565b805160208201fd5b6001600160e01b03198116630a85bd0160e11b14610cd857604051633250574960e11b81526001600160a01b0385166004820152602401610483565b505b5050505050565b60606000610cee83610faf565b600101905060008167ffffffffffffffff811115610d0e57610d0e611697565b6040519080825280601f01601f191660200182016040528015610d38576020820181803683370190505b5090508181016020015b600019016f181899199a1a9b1b9c1cb0b131b232b360811b600a86061a8153600a8504945084610d4257509392505050565b60006001600160e01b031982166380ac58cd60e01b1480610da557506001600160e01b03198216635b5e139f60e01b145b8061038d57506301ffc9a760e01b6001600160e01b031983161461038d565b8080610dd857506001600160a01b03821615155b15610e9a576000610de884610a23565b90506001600160a01b03831615801590610e145750826001600160a01b0316816001600160a01b031614155b8015610e275750610e258184610992565b155b15610e505760405163a9fbf51f60e01b81526001600160a01b0384166004820152602401610483565b8115610e985783856001600160a01b0316826001600160a01b03167f8c5be1e5ebec7d5bd14f71427d1e84f3dd0314c0f7b2291e5b200ac8c7c3b92560405160405180910390a45b505b5050600090815260046020526040902080546001600160a01b0319166001600160a01b0392909216919091179055565b600080610ed8858585611087565b90506001600160a01b038116610f3557610f3084600880546000838152600960205260408120829055600182018355919091527ff3f7a9fe364faab93b216da50a3214154f22a0a2b415b23a84c8169e8b636ee30155565b610f58565b846001600160a01b0316816001600160a01b031614610f5857610f588185611180565b6001600160a01b038516610f7457610f6f84611201565b610a76565b846001600160a01b0316816001600160a01b031614610a7657610a7685856112b0565b610fa18383611300565b61056d336000858585610bb6565b60008072184f03e93ff9f4daa797ed6e38ed64bf6a1f0160401b8310610fee5772184f03e93ff9f4daa797ed6e38ed64bf6a1f0160401b830492506040015b6d04ee2d6d415b85acef8100000000831061101a576d04ee2d6d415b85acef8100000000830492506020015b662386f26fc10000831061103857662386f26fc10000830492506010015b6305f5e1008310611050576305f5e100830492506008015b612710831061106457612710830492506004015b60648310611076576064830492506002015b600a831061038d5760010192915050565b6000828152600260205260408120546001600160a01b03908116908316156110b4576110b4818486611365565b6001600160a01b038116156110f2576110d1600085600080610dc4565b6001600160a01b038116600090815260036020526040902080546000190190555b6001600160a01b03851615611121576001600160a01b0385166000908152600360205260409020805460010190555b60008481526002602052604080822080546001600160a01b0319166001600160a01b0389811691821790925591518793918516917fddf252ad1be2c89b69c2b068fc378daa952ba7f163c4a11628f55a4df523b3ef91a4949350505050565b600061118b8361088f565b6000838152600760209081526040808320546001600160a01b03881684526006909252909120919250908183146111e257600083815260208281526040808320548584528184208190558352600790915290208290555b6000938452600760209081526040808620869055938552525081205550565b600854600090611213906001906118fb565b6000838152600960205260408120546008805493945090928490811061123b5761123b61182f565b90600052602060002001549050806008838154811061125c5761125c61182f565b60009182526020808320909101929092558281526009909152604080822084905585825281205560088054806112945761129461190e565b6001900381819060005260206000200160009055905550505050565b600060016112bd8461088f565b6112c791906118fb565b6001600160a01b039093166000908152600660209081526040808320868452825280832085905593825260079052919091209190915550565b6001600160a01b03821661132a57604051633250574960e11b815260006004820152602401610483565b600061133883836000610a69565b90506001600160a01b0381161561056d576040516339e3563760e11b815260006004820152602401610483565b6113708383836113c9565b61056d576001600160a01b03831661139e57604051637e27328960e01b815260048101829052602401610483565b60405163177e802f60e01b81526001600160a01b038316600482015260248101829052604401610483565b60006001600160a01b03831615801590610a765750826001600160a01b0316846001600160a01b0316148061140357506114038484610992565b80610a765750506000908152600460205260409020546001600160a01b03908116911614919050565b6001600160e01b0319811681146109fb57600080fd5b60006020828403121561145457600080fd5b813561098b8161142c565b60005b8381101561147a578181015183820152602001611462565b50506000910152565b6000815180845261149b81602086016020860161145f565b601f01601f19169290920160200192915050565b60208152600061098b6020830184611483565b6000602082840312156114d457600080fd5b5035919050565b80356001600160a01b03811681146114f257600080fd5b919050565b6000806040838503121561150a57600080fd5b611513836114db565b946020939093013593505050565b60008060006060848603121561153657600080fd5b61153f846114db565b925061154d602085016114db565b9150604084013590509250925092565b6000806040838503121561157057600080fd5b50508035926020909101359150565b634e487b7160e01b600052602160045260246000fd5b600581106115b357634e487b7160e01b600052602160045260246000fd5b9052565b608081016115c58287611595565b60ff8516602083015283604083015282606083015295945050505050565b8035600581106114f257600080fd5b6000806040838503121561160557600080fd5b61160e836114db565b915061161c602084016115e3565b90509250929050565b60006020828403121561163757600080fd5b61098b826114db565b60006020828403121561165257600080fd5b61098b826115e3565b6000806040838503121561166e57600080fd5b611677836114db565b91506020830135801515811461168c57600080fd5b809150509250929050565b634e487b7160e01b600052604160045260246000fd5b600080600080608085870312156116c357600080fd5b6116cc856114db565b93506116da602086016114db565b925060408501359150606085013567ffffffffffffffff808211156116fe57600080fd5b818701915087601f83011261171257600080fd5b81358181111561172457611724611697565b604051601f8201601f19908116603f0116810190838211818310171561174c5761174c611697565b816040528281528a602084870101111561176557600080fd5b82602086016020830137600060208483010152809550505050505092959194509250565b6000806040838503121561179c57600080fd5b6117a5836114db565b915061161c602084016114db565b600181811c908216806117c757607f821691505b6020821081036117e757634e487b7160e01b600052602260045260246000fd5b50919050565b634e487b7160e01b600052601160045260246000fd5b60ff818116838216019081111561038d5761038d6117ed565b8082018082111561038d5761038d6117ed565b634e487b7160e01b600052603260045260246000fd5b600060018201611857576118576117ed565b5060010190565b8281526040810161098b6020830184611595565b6000835161188481846020880161145f565b83519083019061189881836020880161145f565b01949350505050565b6001600160a01b03858116825284166020820152604081018390526080606082018190526000906118d490830184611483565b9695505050505050565b6000602082840312156118f057600080fd5b815161098b8161142c565b8181038181111561038d5761038d6117ed565b634e487b7160e01b600052603160045260246000fdfea26469706673582212205b1094d00bccd08f3cf753f8abc56ea0a70a3eb50a537f622a72ce33fd1f5a4b64736f6c63430008140033",
  "linkReferences": {},
  "deployedLinkReferences": {}
}